{
  "contractName": "HyperStake",
  "abi": [
    {
      "inputs": [
        {
          "name": "_linkToken",
          "type": "address"
        },
        {
          "name": "_oracle",
          "type": "address"
        },
        {
          "name": "_maxStakeEther",
          "type": "uint256"
        },
        {
          "name": "_receiver",
          "type": "string"
        }
      ],
      "payable": false,
      "stateMutability": "nonpayable",
      "type": "constructor"
    },
    {
      "anonymous": false,
      "inputs": [
        {
          "indexed": true,
          "name": "id",
          "type": "bytes32"
        }
      ],
      "name": "ChainlinkRequested",
      "type": "event"
    },
    {
      "anonymous": false,
      "inputs": [
        {
          "indexed": true,
          "name": "id",
          "type": "bytes32"
        }
      ],
      "name": "ChainlinkFulfilled",
      "type": "event"
    },
    {
      "anonymous": false,
      "inputs": [
        {
          "indexed": true,
          "name": "id",
          "type": "bytes32"
        }
      ],
      "name": "ChainlinkCancelled",
      "type": "event"
    },
    {
      "constant": true,
      "inputs": [],
      "name": "getReceiver",
      "outputs": [
        {
          "name": "",
          "type": "string"
        }
      ],
      "payable": false,
      "stateMutability": "view",
      "type": "function"
    },
    {
      "constant": true,
      "inputs": [],
      "name": "getMaxStake",
      "outputs": [
        {
          "name": "",
          "type": "uint256"
        }
      ],
      "payable": false,
      "stateMutability": "view",
      "type": "function"
    },
    {
      "constant": true,
      "inputs": [],
      "name": "getBalance",
      "outputs": [
        {
          "name": "",
          "type": "uint256"
        }
      ],
      "payable": false,
      "stateMutability": "view",
      "type": "function"
    },
    {
      "constant": true,
      "inputs": [
        {
          "name": "user",
          "type": "address"
        }
      ],
      "name": "getBalanceOfStaker",
      "outputs": [
        {
          "name": "",
          "type": "uint256"
        }
      ],
      "payable": false,
      "stateMutability": "view",
      "type": "function"
    },
    {
      "constant": false,
      "inputs": [],
      "name": "stake",
      "outputs": [],
      "payable": true,
      "stateMutability": "payable",
      "type": "function"
    },
    {
      "constant": false,
      "inputs": [],
      "name": "refund",
      "outputs": [],
      "payable": false,
      "stateMutability": "nonpayable",
      "type": "function"
    },
    {
      "constant": false,
      "inputs": [
        {
          "name": "subdomain",
          "type": "string"
        }
      ],
      "name": "requestPayout",
      "outputs": [],
      "payable": false,
      "stateMutability": "nonpayable",
      "type": "function"
    },
    {
      "constant": false,
      "inputs": [
        {
          "name": "_requestId",
          "type": "bytes32"
        },
        {
          "name": "shouldPayout",
          "type": "bool"
        }
      ],
      "name": "fufillPayout",
      "outputs": [],
      "payable": false,
      "stateMutability": "nonpayable",
      "type": "function"
    },
    {
      "constant": true,
      "inputs": [
        {
          "name": "str1",
          "type": "string"
        },
        {
          "name": "str2",
          "type": "string"
        },
        {
          "name": "str3",
          "type": "string"
        },
        {
          "name": "str4",
          "type": "string"
        }
      ],
      "name": "concat",
      "outputs": [
        {
          "name": "",
          "type": "string"
        }
      ],
      "payable": false,
      "stateMutability": "pure",
      "type": "function"
    }
  ],
  "bytecode": "0x608060405260016004553480156200001657600080fd5b5060405162001b3538038062001b35833981018060405281019080805190602001909291908051906020019092919080519060200190929190805182019291905050506200007384620000ec640100000000026401000000009004565b6200008d8362000130640100000000026401000000009004565b7f3863393562656237333262323462653538326566666666333431393834346435600b8160001916905550670de0b6b3a764000082026008819055508060099080519060200190620000e192919062000174565b505050505062000223565b80600260006101000a81548173ffffffffffffffffffffffffffffffffffffffff021916908373ffffffffffffffffffffffffffffffffffffffff16021790555050565b80600360006101000a81548173ffffffffffffffffffffffffffffffffffffffff021916908373ffffffffffffffffffffffffffffffffffffffff16021790555050565b828054600181600116156101000203166002900490600052602060002090601f016020900481019282601f10620001b757805160ff1916838001178555620001e8565b82800160010185558215620001e8579182015b82811115620001e7578251825591602001919060010190620001ca565b5b509050620001f79190620001fb565b5090565b6200022091905b808211156200021c57600081600090555060010162000202565b5090565b90565b61190280620002336000396000f300608060405260043610610099576000357c0100000000000000000000000000000000000000000000000000000000900463ffffffff16806312065fe01461009e5780633a4b66f1146100c9578063590e1ae3146100d35780637ee70746146100ea57806398aca92214610127578063b8b603c5146101b7578063d8e5c79714610220578063dfd6d394146103d4578063fe35505b1461042b575b600080fd5b3480156100aa57600080fd5b506100b3610456565b6040518082815260200191505060405180910390f35b6100d1610475565b005b3480156100df57600080fd5b506100e8610623565b005b3480156100f657600080fd5b506101256004803603810190808035600019169060200190929190803515159060200190929190505050610756565b005b34801561013357600080fd5b5061013c610946565b6040518080602001828103825283818151815260200191508051906020019080838360005b8381101561017c578082015181840152602081019050610161565b50505050905090810190601f1680156101a95780820380516001836020036101000a031916815260200191505b509250505060405180910390f35b3480156101c357600080fd5b5061021e600480360381019080803590602001908201803590602001908080601f01602080910402602001604051908101604052809392919081815260200183838082843782019150505050505091929192905050506109e8565b005b34801561022c57600080fd5b50610359600480360381019080803590602001908201803590602001908080601f0160208091040260200160405190810160405280939291908181526020018383808284378201915050505050509192919290803590602001908201803590602001908080601f0160208091040260200160405190810160405280939291908181526020018383808284378201915050505050509192919290803590602001908201803590602001908080601f0160208091040260200160405190810160405280939291908181526020018383808284378201915050505050509192919290803590602001908201803590602001908080601f0160208091040260200160405190810160405280939291908181526020018383808284378201915050505050509192919290505050610bfa565b6040518080602001828103825283818151815260200191508051906020019080838360005b8381101561039957808201518184015260208101905061037e565b50505050905090810190601f1680156103c65780820380516001836020036101000a031916815260200191505b509250505060405180910390f35b3480156103e057600080fd5b50610415600480360381019080803573ffffffffffffffffffffffffffffffffffffffff169060200190929190505050610d72565b6040518082815260200191505060405180910390f35b34801561043757600080fd5b50610440610dbb565b6040518082815260200191505060405180910390f35b60003073ffffffffffffffffffffffffffffffffffffffff1631905090565b600080600660003373ffffffffffffffffffffffffffffffffffffffff1673ffffffffffffffffffffffffffffffffffffffff168152602001908152602001600020549150600082141561052a5760073390806001815401808255809150509060018203906000526020600020016000909192909190916101000a81548173ffffffffffffffffffffffffffffffffffffffff021916908373ffffffffffffffffffffffffffffffffffffffff160217905550505b60085434830111156105d157600854348301039050600854600660003373ffffffffffffffffffffffffffffffffffffffff1673ffffffffffffffffffffffffffffffffffffffff168152602001908152602001600020819055503373ffffffffffffffffffffffffffffffffffffffff166108fc829081150290604051600060405180830381858888f193505050501580156105cb573d6000803e3d6000fd5b5061061f565b34600660003373ffffffffffffffffffffffffffffffffffffffff1673ffffffffffffffffffffffffffffffffffffffff168152602001908152602001600020600082825401925050819055505b5050565b600080600091505b60078054905082101561073d5760078281548110151561064757fe5b9060005260206000200160009054906101000a900473ffffffffffffffffffffffffffffffffffffffff1673ffffffffffffffffffffffffffffffffffffffff166108fc6006600060078681548110151561069e57fe5b9060005260206000200160009054906101000a900473ffffffffffffffffffffffffffffffffffffffff1673ffffffffffffffffffffffffffffffffffffffff1673ffffffffffffffffffffffffffffffffffffffff168152602001908152602001600020549081150290604051600060405180830381858888f1935050505015801561072f573d6000803e3d6000fd5b50818060010192505061062b565b8073ffffffffffffffffffffffffffffffffffffffff16ff5b8160056000826000191660001916815260200190815260200160002060009054906101000a900473ffffffffffffffffffffffffffffffffffffffff1673ffffffffffffffffffffffffffffffffffffffff163373ffffffffffffffffffffffffffffffffffffffff1614151561085b576040517f08c379a00000000000000000000000000000000000000000000000000000000081526004018080602001828103825260288152602001807f536f75726365206d75737420626520746865206f7261636c65206f662074686581526020017f207265717565737400000000000000000000000000000000000000000000000081525060400191505060405180910390fd5b60056000826000191660001916815260200190815260200160002060006101000a81549073ffffffffffffffffffffffffffffffffffffffff021916905580600019167f7cc135e0cebb02c3480ae5d74d377283180a2601f8f644edf7987b009316c63a60405160405180910390a2811561094157600a60009054906101000a900473ffffffffffffffffffffffffffffffffffffffff1673ffffffffffffffffffffffffffffffffffffffff166108fc610914610456565b9081150290604051600060405180830381858888f1935050505015801561093f573d6000803e3d6000fd5b505b505050565b606060098054600181600116156101000203166002900480601f0160208091040260200160405190810160405280929190818152602001828054600181600116156101000203166002900480156109de5780601f106109b3576101008083540402835291602001916109de565b820191906000526020600020905b8154815290600101906020018083116109c157829003601f168201915b5050505050905090565b6109f0611834565b610a20600b5430637ee707467c010000000000000000000000000000000000000000000000000000000002610dc5565b9050610ba26040805190810160405280600381526020017f6765740000000000000000000000000000000000000000000000000000000000815250610b926040805190810160405280600781526020017f687474703a2f2f0000000000000000000000000000000000000000000000000081525085606060405190810160405280602281526020017f2e6e67726f6b2e696f2f76657269667952656365697665723f757365726e616d81526020017f653d00000000000000000000000000000000000000000000000000000000000081525060098054600181600116156101000203166002900480601f016020809104026020016040519081016040528092919081815260200182805460018160011615610100020316600290048015610b885780601f10610b5d57610100808354040283529160200191610b88565b820191906000526020600020905b815481529060010190602001808311610b6b57829003601f168201915b5050505050610bfa565b83610df69092919063ffffffff16565b610bb481670de0b6b3a7640000610e29565b5033600a60006101000a81548173ffffffffffffffffffffffffffffffffffffffff021916908373ffffffffffffffffffffffffffffffffffffffff1602179055505050565b6060848484846040516020018085805190602001908083835b602083101515610c385780518252602082019150602081019050602083039250610c13565b6001836020036101000a03801982511681845116808217855250505050505090500184805190602001908083835b602083101515610c8b5780518252602082019150602081019050602083039250610c66565b6001836020036101000a03801982511681845116808217855250505050505090500183805190602001908083835b602083101515610cde5780518252602082019150602081019050602083039250610cb9565b6001836020036101000a03801982511681845116808217855250505050505090500182805190602001908083835b602083101515610d315780518252602082019150602081019050602083039250610d0c565b6001836020036101000a0380198251168184511680821785525050505050509050019450505050506040516020818303038152906040529050949350505050565b6000600660008373ffffffffffffffffffffffffffffffffffffffff1673ffffffffffffffffffffffffffffffffffffffff168152602001908152602001600020549050919050565b6000600854905090565b610dcd611834565b610dd5611834565b610dec85858584610e60909392919063ffffffff16565b9150509392505050565b610e0d828460800151610f1990919063ffffffff16565b610e24818460800151610f1990919063ffffffff16565b505050565b6000610e58600360009054906101000a900473ffffffffffffffffffffffffffffffffffffffff168484610f3e565b905092915050565b610e68611834565b610e7885608001516101006112ca565b838560000190600019169081600019168152505082856020019073ffffffffffffffffffffffffffffffffffffffff16908173ffffffffffffffffffffffffffffffffffffffff16815250508185604001907bffffffffffffffffffffffffffffffffffffffffffffffffffffffff191690817bffffffffffffffffffffffffffffffffffffffffffffffffffffffff191681525050849050949350505050565b610f26826003835161131e565b610f39818361147790919063ffffffff16565b505050565b600030600454604051602001808373ffffffffffffffffffffffffffffffffffffffff1673ffffffffffffffffffffffffffffffffffffffff166c01000000000000000000000000028152601401828152602001925050506040516020818303038152906040526040518082805190602001908083835b602083101515610fda5780518252602082019150602081019050602083039250610fb5565b6001836020036101000a038019825116818451168082178552505050505050905001915050604051809103902090506004548360600181815250508360056000836000191660001916815260200190815260200160002060006101000a81548173ffffffffffffffffffffffffffffffffffffffff021916908373ffffffffffffffffffffffffffffffffffffffff16021790555080600019167fb5e6e01e79f91267dc17b4e6314d5d4d03593d2ceee0fbb452b750bd70ea5af960405160405180910390a2600260009054906101000a900473ffffffffffffffffffffffffffffffffffffffff1673ffffffffffffffffffffffffffffffffffffffff16634000aea085846110e987611523565b6040518463ffffffff167c0100000000000000000000000000000000000000000000000000000000028152600401808473ffffffffffffffffffffffffffffffffffffffff1673ffffffffffffffffffffffffffffffffffffffff16815260200183815260200180602001828103825283818151815260200191508051906020019080838360005b8381101561118c578082015181840152602081019050611171565b50505050905090810190601f1680156111b95780820380516001836020036101000a031916815260200191505b50945050505050602060405180830381600087803b1580156111da57600080fd5b505af11580156111ee573d6000803e3d6000fd5b505050506040513d602081101561120457600080fd5b810190808051906020019092919050505015156112af576040517f08c379a00000000000000000000000000000000000000000000000000000000081526004018080602001828103825260238152602001807f756e61626c6520746f207472616e73666572416e6443616c6c20746f206f726181526020017f636c65000000000000000000000000000000000000000000000000000000000081525060400191505060405180910390fd5b60016004600082825401925050819055508090509392505050565b60006112fc60207fffffffffffffffffffffffffffffffffffffffffffffffffffffffffffffffe0601f85011661174e565b9050808360200181815250506040518084526000815281810160405250505050565b60178111151561134f5761134a8160058460ff169060020a0260ff16178461176a90919063ffffffff16565b611472565b60ff8111151561139557611379601860058460ff169060020a02178461176a90919063ffffffff16565b61138f816001856117aa9092919063ffffffff16565b50611471565b61ffff811115156113dc576113c0601960058460ff169060020a02178461176a90919063ffffffff16565b6113d6816002856117aa9092919063ffffffff16565b50611470565b63ffffffff8111151561142557611409601a60058460ff169060020a02178461176a90919063ffffffff16565b61141f816004856117aa9092919063ffffffff16565b5061146f565b67ffffffffffffffff8111151561146e57611456601b60058460ff169060020a02178461176a90919063ffffffff16565b61146c816008856117aa9092919063ffffffff16565b505b5b5b5b5b505050565b61147f6118a2565b600080600080866020015187600001515187510111156114b5576114b48760026114ae8a602001518a5161174e565b02611811565b5b8551915086518051602081830101955087518101825260208801945050505b6020821015156114f957825184526020840193506020830192506020820391506114d4565b6001826020036101000a039050801983511681855116818117865250508694505050505092915050565b6060600360009054906101000a900473ffffffffffffffffffffffffffffffffffffffff1673ffffffffffffffffffffffffffffffffffffffff16634042994690507c01000000000000000000000000000000000000000000000000000000000260008084600001518560200151866040015187606001516001896080015160000151604051602401808973ffffffffffffffffffffffffffffffffffffffff1673ffffffffffffffffffffffffffffffffffffffff16815260200188815260200187600019166000191681526020018673ffffffffffffffffffffffffffffffffffffffff1673ffffffffffffffffffffffffffffffffffffffff168152602001857bffffffffffffffffffffffffffffffffffffffffffffffffffffffff19167bffffffffffffffffffffffffffffffffffffffffffffffffffffffff1916815260200184815260200183815260200180602001828103825283818151815260200191508051906020019080838360005b838110156116b1578082015181840152602081019050611696565b50505050905090810190601f1680156116de5780820380516001836020036101000a031916815260200191505b509950505050505050505050604051602081830303815290604052907bffffffffffffffffffffffffffffffffffffffffffffffffffffffff19166020820180517bffffffffffffffffffffffffffffffffffffffffffffffffffffffff83818316178352505050509050919050565b60008183111561176057829050611764565b8190505b92915050565b816020015160018360000151510111156117905761178f826002846020015102611811565b5b815180516020818301018381536001820183525050505050565b6117b26118a2565b60008460200151856000015151840111156117e2576117e18560026117db88602001518761174e565b02611811565b5b6001836101000a0390508451805184818301018684198251161781528582018352505050849150509392505050565b60608260000151905061182483836112ca565b61182e8382611477565b50505050565b60c06040519081016040528060008019168152602001600073ffffffffffffffffffffffffffffffffffffffff16815260200160007bffffffffffffffffffffffffffffffffffffffffffffffffffffffff191681526020016000815260200161189c6118bc565b81525090565b604080519081016040528060608152602001600081525090565b6040805190810160405280606081526020016000815250905600a165627a7a7230582042fac4ba3156064ec5f17d66bff5fee1f1f5dc56e35547fc3f46ecaccbd557700029",
  "source": "pragma solidity 0.4.24;\nimport \"chainlink/solidity/contracts/Chainlinked.sol\";\n\n\ncontract HyperStake is Chainlinked  {\n    mapping (address => uint256) balanceOf;\n    address[] stakers;\n    uint maxStake;\n    string receiver;\n    address receiversAddress;\n    bytes32 specId;\n\n    constructor (address _linkToken, address _oracle, uint _maxStakeEther, string _receiver) public {\n        setLinkToken(_linkToken);\n        setOracle(_oracle);\n        specId = bytes32(\"8c95beb732b24be582effff3419844d5\");\n\n        maxStake = _maxStakeEther * 1 ether;\n        receiver = _receiver;\n    }\n\n    function getReceiver() public view returns (string) {\n        return receiver;\n    }\n\n    function getMaxStake() public view returns (uint) {\n        return maxStake;\n    }\n\n    function getBalance() public view returns (uint) {\n        return address(this).balance;\n    }\n\n    function getBalanceOfStaker(address user) public view returns (uint) {\n        return balanceOf[user];\n    }\n\n    // not safe at all kek\n    function stake() public payable {\n        uint userBalance = balanceOf[msg.sender];\n        if(userBalance == 0) {\n            stakers.push(msg.sender);\n        }\n        if(userBalance + msg.value > maxStake){\n            uint remainder = userBalance + msg.value - maxStake;\n            balanceOf[msg.sender] = maxStake;\n            msg.sender.transfer(remainder);\n        } else {\n            balanceOf[msg.sender] += msg.value;\n        }\n    }\n\n    function refund() public {\n        // TODO: should not refund until a set amount of blocks passes\n        for (uint index = 0; index < stakers.length; index++) {\n            stakers[index].transfer(balanceOf[stakers[index]]);\n        }\n        address burnAddress;\n        selfdestruct(burnAddress);\n    }\n\n    // when staking contracts open\n    // each contract has a keybase username associated to it on construction\n    // once a payout is requested, the user\n    // should verify the identity of the party before paying out\n    // getRequest[0] = \"http://localhost/verifyReceiver?receiver=ethglobal\";\n    function requestPayout(string subdomain) public { \n        // TODO: should not payout until a set amount of blocks passes\n        Chainlink.Request memory req = newRequest(specId, this, this.fufillPayout.selector);\n        req.add(\"get\", concat(\"http://\",subdomain,\".ngrok.io/verifyReceiver?username=\",receiver));\n        chainlinkRequest(req, 1 ether);\n        receiversAddress = msg.sender;\n    }\n\n    function fufillPayout(bytes32 _requestId, bool shouldPayout) public recordChainlinkFulfillment(_requestId) {\n        if(shouldPayout){\n            receiversAddress.transfer(getBalance());\n        }\n    }\n\n    function concat(string memory str1, string memory str2, string memory str3, string memory str4) public pure returns (string memory) {\n        return string(abi.encodePacked(str1, str2, str3, str4));\n    }\n}\n",
  "sourcePath": "/home/henrynguyen/.chainlink-ropsten/solidity/contracts/HyperStake.sol",
  "compiler": {
    "name": "solc",
    "version": "0.4.24+commit.e67f0147.Emscripten.clang"
  },
  "schemaVersion": "3.0.2",
  "updatedAt": "2019-02-17T03:42:29.354Z",
  "devdoc": {
    "methods": {}
  },
  "userdoc": {
    "methods": {}
  }
}